{
    "data": {
        "pageStart": 0,
        "pageSize": 10,
        "totalElements": 77,
        "totalPages": 8,
        "responseList": [
            {
                "blockHeight": "18485",
                "hash": "0x4c3bd2fba40040dcc539d5afa5297de7d1f15228fb232171e0918dc5edfaceff",
                "parentHash": "0x297ad82154c6bc80dd09aa944dfab3cf4aee7b44e3edfb9bb14baae50dd9ff57",
                "miner": "0x5445b7247a9b0cba43a692a10fdff244117f5f92",
                "size": "1229",
                "gasUsed": "40566",
                "gasLimit": "700000000",
                "stateRoot": "0xeb105b9a4d52814e9bf4a3f314bcda653a1a23cbd3304e9c342fd23290afd4c4",
                "nonce": "0",
                "extraData": "0xf9019da0d883010a03846765746888676f312e31382e33856c696e757800000000000000f869940aa67972813b3bb598b140d5bc14bebcd2846f2d945445b7247a9b0cba43a692a10fdff244117f5f929458c41164d3edbe25d2b716f39ddaef54cbca8446949e442b290f28516c7b5c41136c355a99f7365abe94c9432f7fd5224bc9695a5e416fc80123d07f3cfac080f9010cb8417c29ea4eaef3a8eb72b9794e6265bfcd496ad68fa12f4c536dc58fb7c1185d7262168e9121e3f8b7ecfbc2c7e0d1c645f2bd8ecf9224c59dcd26ff710badf25401b841f91cbbdfd0862bb5f7a4788eabe19fdbf65206a39ea1d55b55dcaf835d052e130f7adcafbd176b3f15a066606a16aedb43e5e8f4ec97f35cb6b5720560dd6a7201b84123362f37fc54c8e504b9b51f9069ee1adf680ec93d4967afec8447920f2e05a03ea0280fb5205b75fa2d5e7aa4f27e266463c88f46e0e1847deaef304a6faeab01b841e93a7bf4de4f8ea37a5ee27554c66aaa7f6e7deacb595b4ea6822050fea9024752177d56b8517f1f73c0ff4b99997a26f5a094ba8b297aac814201d93d38905501",
                "mixHash": "0x63746963616c2062797a616e74696e65206661756c7420746f6c6572616e6365",
                "receiptsRoot": "0x1f6bd1afbbb5566260f6d61295d5c6704bbd598d0141f615174961f13d382a20",
                "sha3Uncles": "0x1dcc4de8dec75d7aab85b567b6ccd41ad312451b948a7413f0a142fd40d49347",
                "transactions": "[\"0x733c00e463d5d1535496273462a19ffe0b977be512b29482422520f98fec6991\"]",
                "transactionsRoot": "0xdb134ddc336966bc740fa8fbcd9a02b4dba149edde6874c18f5766df86e80f42",
                "difficulty": "1",
                "totalDifficulty": "18486",
                "logsBloom": null,
                "createTime": "1970-01-20 14:39:02"
            },
            {
                "blockHeight": "18485",
                "hash": "0x4c3bd2fba40040dcc53d5afa5297de7d1f15228fb232171e0918dc5edfaceff",
                "parentHash": "0x297ad82154c6bc80dd09aa944dfab3cf4aee7b44e3edfb9bb14baae50dd9ff57",
                "miner": "0x5445b7247a9b0cba43a692a10fdff244117f5f92",
                "size": "1229",
                "gasUsed": "40566",
                "gasLimit": "700000000",
                "stateRoot": "0xeb105b9a4d52814e9bf4a3f314bcda653a1a23cbd3304e9c342fd23290afd4c4",
                "nonce": "0",
                "extraData": "0xf9019da0d883010a03846765746888676f312e31382e33856c696e757800000000000000f869940aa67972813b3bb598b140d5bc14bebcd2846f2d945445b7247a9b0cba43a692a10fdff244117f5f929458c41164d3edbe25d2b716f39ddaef54cbca8446949e442b290f28516c7b5c41136c355a99f7365abe94c9432f7fd5224bc9695a5e416fc80123d07f3cfac080f9010cb8417c29ea4eaef3a8eb72b9794e6265bfcd496ad68fa12f4c536dc58fb7c1185d7262168e9121e3f8b7ecfbc2c7e0d1c645f2bd8ecf9224c59dcd26ff710badf25401b841f91cbbdfd0862bb5f7a4788eabe19fdbf65206a39ea1d55b55dcaf835d052e130f7adcafbd176b3f15a066606a16aedb43e5e8f4ec97f35cb6b5720560dd6a7201b84123362f37fc54c8e504b9b51f9069ee1adf680ec93d4967afec8447920f2e05a03ea0280fb5205b75fa2d5e7aa4f27e266463c88f46e0e1847deaef304a6faeab01b841e93a7bf4de4f8ea37a5ee27554c66aaa7f6e7deacb595b4ea6822050fea9024752177d56b8517f1f73c0ff4b99997a26f5a094ba8b297aac814201d93d38905501",
                "mixHash": "0x63746963616c2062797a616e74696e65206661756c7420746f6c6572616e6365",
                "receiptsRoot": "0x1f6bd1afbbb5566260f6d61295d5c6704bbd598d0141f615174961f13d382a20",
                "sha3Uncles": "0x1dcc4de8dec75d7aab85b567b6ccd41ad312451b948a7413f0a142fd40d49347",
                "transactions": "[\"0x733c00e463d5d1535496273462a19ffe0b977be512b29482422520f98fec6991\"]",
                "transactionsRoot": "0xdb134ddc336966bc740fa8fbcd9a02b4dba149edde6874c18f5766df86e80f42",
                "difficulty": "1",
                "totalDifficulty": "18486",
                "logsBloom": null,
                "createTime": "1970-01-20 14:39:02"
            },
            {
                "blockHeight": "18485",
                "hash": "0x4c3bd2fba40040dcc39d5afa5297de7d1f15228fb232171e0918dc5edfaceff",
                "parentHash": "0x297ad82154c6bc80dd09aa944dfab3cf4aee7b44e3edfb9bb14baae50dd9ff57",
                "miner": "0x5445b7247a9b0cba43a692a10fdff244117f5f92",
                "size": "1229",
                "gasUsed": "40566",
                "gasLimit": "700000000",
                "stateRoot": "0xeb105b9a4d52814e9bf4a3f314bcda653a1a23cbd3304e9c342fd23290afd4c4",
                "nonce": "0",
                "extraData": "0xf9019da0d883010a03846765746888676f312e31382e33856c696e757800000000000000f869940aa67972813b3bb598b140d5bc14bebcd2846f2d945445b7247a9b0cba43a692a10fdff244117f5f929458c41164d3edbe25d2b716f39ddaef54cbca8446949e442b290f28516c7b5c41136c355a99f7365abe94c9432f7fd5224bc9695a5e416fc80123d07f3cfac080f9010cb8417c29ea4eaef3a8eb72b9794e6265bfcd496ad68fa12f4c536dc58fb7c1185d7262168e9121e3f8b7ecfbc2c7e0d1c645f2bd8ecf9224c59dcd26ff710badf25401b841f91cbbdfd0862bb5f7a4788eabe19fdbf65206a39ea1d55b55dcaf835d052e130f7adcafbd176b3f15a066606a16aedb43e5e8f4ec97f35cb6b5720560dd6a7201b84123362f37fc54c8e504b9b51f9069ee1adf680ec93d4967afec8447920f2e05a03ea0280fb5205b75fa2d5e7aa4f27e266463c88f46e0e1847deaef304a6faeab01b841e93a7bf4de4f8ea37a5ee27554c66aaa7f6e7deacb595b4ea6822050fea9024752177d56b8517f1f73c0ff4b99997a26f5a094ba8b297aac814201d93d38905501",
                "mixHash": "0x63746963616c2062797a616e74696e65206661756c7420746f6c6572616e6365",
                "receiptsRoot": "0x1f6bd1afbbb5566260f6d61295d5c6704bbd598d0141f615174961f13d382a20",
                "sha3Uncles": "0x1dcc4de8dec75d7aab85b567b6ccd41ad312451b948a7413f0a142fd40d49347",
                "transactions": "[\"0x733c00e463d5d1535496273462a19ffe0b977be512b29482422520f98fec6991\"]",
                "transactionsRoot": "0xdb134ddc336966bc740fa8fbcd9a02b4dba149edde6874c18f5766df86e80f42",
                "difficulty": "1",
                "totalDifficulty": "18486",
                "logsBloom": null,
                "createTime": "1970-01-20 14:39:02"
            },
            {
                "blockHeight": "18485",
                "hash": "0x4c3bd2fba40040cc539d5afa5297de7d1f15228fb232171e0918dc5edfaceff",
                "parentHash": "0x297ad82154c6bc80dd09aa944dfab3cf4aee7b44e3edfb9bb14baae50dd9ff57",
                "miner": "0x5445b7247a9b0cba43a692a10fdff244117f5f92",
                "size": "1229",
                "gasUsed": "40566",
                "gasLimit": "700000000",
                "stateRoot": "0xeb105b9a4d52814e9bf4a3f314bcda653a1a23cbd3304e9c342fd23290afd4c4",
                "nonce": "0",
                "extraData": "0xf9019da0d883010a03846765746888676f312e31382e33856c696e757800000000000000f869940aa67972813b3bb598b140d5bc14bebcd2846f2d945445b7247a9b0cba43a692a10fdff244117f5f929458c41164d3edbe25d2b716f39ddaef54cbca8446949e442b290f28516c7b5c41136c355a99f7365abe94c9432f7fd5224bc9695a5e416fc80123d07f3cfac080f9010cb8417c29ea4eaef3a8eb72b9794e6265bfcd496ad68fa12f4c536dc58fb7c1185d7262168e9121e3f8b7ecfbc2c7e0d1c645f2bd8ecf9224c59dcd26ff710badf25401b841f91cbbdfd0862bb5f7a4788eabe19fdbf65206a39ea1d55b55dcaf835d052e130f7adcafbd176b3f15a066606a16aedb43e5e8f4ec97f35cb6b5720560dd6a7201b84123362f37fc54c8e504b9b51f9069ee1adf680ec93d4967afec8447920f2e05a03ea0280fb5205b75fa2d5e7aa4f27e266463c88f46e0e1847deaef304a6faeab01b841e93a7bf4de4f8ea37a5ee27554c66aaa7f6e7deacb595b4ea6822050fea9024752177d56b8517f1f73c0ff4b99997a26f5a094ba8b297aac814201d93d38905501",
                "mixHash": "0x63746963616c2062797a616e74696e65206661756c7420746f6c6572616e6365",
                "receiptsRoot": "0x1f6bd1afbbb5566260f6d61295d5c6704bbd598d0141f615174961f13d382a20",
                "sha3Uncles": "0x1dcc4de8dec75d7aab85b567b6ccd41ad312451b948a7413f0a142fd40d49347",
                "transactions": "[\"0x733c00e463d5d1535496273462a19ffe0b977be512b29482422520f98fec6991\"]",
                "transactionsRoot": "0xdb134ddc336966bc740fa8fbcd9a02b4dba149edde6874c18f5766df86e80f42",
                "difficulty": "1",
                "totalDifficulty": "18486",
                "logsBloom": null,
                "createTime": "1970-01-20 14:39:02"
            },
            {
                "blockHeight": "18485",
                "hash": "0x4c3bd2fba4000dcc539d5afa5297de7d1f15228fb232171e0918dc5edfaceff",
                "parentHash": "0x297ad82154c6bc80dd09aa944dfab3cf4aee7b44e3edfb9bb14baae50dd9ff57",
                "miner": "0x5445b7247a9b0cba43a692a10fdff244117f5f92",
                "size": "1229",
                "gasUsed": "40566",
                "gasLimit": "700000000",
                "stateRoot": "0xeb105b9a4d52814e9bf4a3f314bcda653a1a23cbd3304e9c342fd23290afd4c4",
                "nonce": "0",
                "extraData": "0xf9019da0d883010a03846765746888676f312e31382e33856c696e757800000000000000f869940aa67972813b3bb598b140d5bc14bebcd2846f2d945445b7247a9b0cba43a692a10fdff244117f5f929458c41164d3edbe25d2b716f39ddaef54cbca8446949e442b290f28516c7b5c41136c355a99f7365abe94c9432f7fd5224bc9695a5e416fc80123d07f3cfac080f9010cb8417c29ea4eaef3a8eb72b9794e6265bfcd496ad68fa12f4c536dc58fb7c1185d7262168e9121e3f8b7ecfbc2c7e0d1c645f2bd8ecf9224c59dcd26ff710badf25401b841f91cbbdfd0862bb5f7a4788eabe19fdbf65206a39ea1d55b55dcaf835d052e130f7adcafbd176b3f15a066606a16aedb43e5e8f4ec97f35cb6b5720560dd6a7201b84123362f37fc54c8e504b9b51f9069ee1adf680ec93d4967afec8447920f2e05a03ea0280fb5205b75fa2d5e7aa4f27e266463c88f46e0e1847deaef304a6faeab01b841e93a7bf4de4f8ea37a5ee27554c66aaa7f6e7deacb595b4ea6822050fea9024752177d56b8517f1f73c0ff4b99997a26f5a094ba8b297aac814201d93d38905501",
                "mixHash": "0x63746963616c2062797a616e74696e65206661756c7420746f6c6572616e6365",
                "receiptsRoot": "0x1f6bd1afbbb5566260f6d61295d5c6704bbd598d0141f615174961f13d382a20",
                "sha3Uncles": "0x1dcc4de8dec75d7aab85b567b6ccd41ad312451b948a7413f0a142fd40d49347",
                "transactions": "[\"0x733c00e463d5d1535496273462a19ffe0b977be512b29482422520f98fec6991\"]",
                "transactionsRoot": "0xdb134ddc336966bc740fa8fbcd9a02b4dba149edde6874c18f5766df86e80f42",
                "difficulty": "1",
                "totalDifficulty": "18486",
                "logsBloom": null,
                "createTime": "1970-01-20 14:39:02"
            }
        ]
    }
}